{"abi":[{"type":"constructor","inputs":[{"name":"_name","type":"string","internalType":"string"},{"name":"_description","type":"string","internalType":"string"},{"name":"_durationSeconds","type":"uint256","internalType":"uint256"}],"stateMutability":"nonpayable"},{"type":"function","name":"MIN_BID","inputs":[],"outputs":[{"name":"","type":"uint256","internalType":"uint256"}],"stateMutability":"view"},{"type":"function","name":"auctionEnd","inputs":[],"outputs":[],"stateMutability":"nonpayable"},{"type":"function","name":"bid","inputs":[],"outputs":[],"stateMutability":"payable"},{"type":"function","name":"bidHistory","inputs":[{"name":"","type":"uint256","internalType":"uint256"}],"outputs":[{"name":"bidder","type":"address","internalType":"address"},{"name":"amount","type":"uint256","internalType":"uint256"},{"name":"timestamp","type":"uint256","internalType":"uint256"}],"stateMutability":"view"},{"type":"function","name":"description","inputs":[],"outputs":[{"name":"","type":"string","internalType":"string"}],"stateMutability":"view"},{"type":"function","name":"endTime","inputs":[],"outputs":[{"name":"","type":"uint256","internalType":"uint256"}],"stateMutability":"view"},{"type":"function","name":"ended","inputs":[],"outputs":[{"name":"","type":"bool","internalType":"bool"}],"stateMutability":"view"},{"type":"function","name":"highestBid","inputs":[],"outputs":[{"name":"","type":"uint256","internalType":"uint256"}],"stateMutability":"view"},{"type":"function","name":"highestBidder","inputs":[],"outputs":[{"name":"","type":"address","internalType":"address"}],"stateMutability":"view"},{"type":"function","name":"itemName","inputs":[],"outputs":[{"name":"","type":"string","internalType":"string"}],"stateMutability":"view"},{"type":"function","name":"owner","inputs":[],"outputs":[{"name":"","type":"address","internalType":"address"}],"stateMutability":"view"},{"type":"function","name":"pendingReturns","inputs":[{"name":"","type":"address","internalType":"address"}],"outputs":[{"name":"","type":"uint256","internalType":"uint256"}],"stateMutability":"view"},{"type":"function","name":"withdrawPending","inputs":[],"outputs":[],"stateMutability":"nonpayable"}],"bytecode":{"object":"0x608060405234801561000f575f5ffd5b506040516118e33803806118e38339818101604052810190610031919061022a565b825f908161003f91906104b9565b50816001908161004f91906104b9565b50804261005c91906105b5565b6002819055503360055f6101000a81548173ffffffffffffffffffffffffffffffffffffffff021916908373ffffffffffffffffffffffffffffffffffffffff1602179055505050506105e8565b5f604051905090565b5f5ffd5b5f5ffd5b5f5ffd5b5f5ffd5b5f601f19601f8301169050919050565b7f4e487b71000000000000000000000000000000000000000000000000000000005f52604160045260245ffd5b610109826100c3565b810181811067ffffffffffffffff82111715610128576101276100d3565b5b80604052505050565b5f61013a6100aa565b90506101468282610100565b919050565b5f67ffffffffffffffff821115610165576101646100d3565b5b61016e826100c3565b9050602081019050919050565b8281835e5f83830152505050565b5f61019b6101968461014b565b610131565b9050828152602081018484840111156101b7576101b66100bf565b5b6101c284828561017b565b509392505050565b5f82601f8301126101de576101dd6100bb565b5b81516101ee848260208601610189565b91505092915050565b5f819050919050565b610209816101f7565b8114610213575f5ffd5b50565b5f8151905061022481610200565b92915050565b5f5f5f60608486031215610241576102406100b3565b5b5f84015167ffffffffffffffff81111561025e5761025d6100b7565b5b61026a868287016101ca565b935050602084015167ffffffffffffffff81111561028b5761028a6100b7565b5b610297868287016101ca565b92505060406102a886828701610216565b9150509250925092565b5f81519050919050565b7f4e487b71000000000000000000000000000000000000000000000000000000005f52602260045260245ffd5b5f600282049050600182168061030057607f821691505b602082108103610313576103126102bc565b5b50919050565b5f819050815f5260205f209050919050565b5f6020601f8301049050919050565b5f82821b905092915050565b5f600883026103757fffffffffffffffffffffffffffffffffffffffffffffffffffffffffffffffff8261033a565b61037f868361033a565b95508019841693508086168417925050509392505050565b5f819050919050565b5f6103ba6103b56103b0846101f7565b610397565b6101f7565b9050919050565b5f819050919050565b6103d3836103a0565b6103e76103df826103c1565b848454610346565b825550505050565b5f5f905090565b6103fe6103ef565b6104098184846103ca565b505050565b5b8181101561042c576104215f826103f6565b60018101905061040f565b5050565b601f8211156104715761044281610319565b61044b8461032b565b8101602085101561045a578190505b61046e6104668561032b565b83018261040e565b50505b505050565b5f82821c905092915050565b5f6104915f1984600802610476565b1980831691505092915050565b5f6104a98383610482565b9150826002028217905092915050565b6104c2826102b2565b67ffffffffffffffff8111156104db576104da6100d3565b5b6104e582546102e9565b6104f0828285610430565b5f60209050601f831160018114610521575f841561050f578287015190505b610519858261049e565b865550610580565b601f19841661052f86610319565b5f5b8281101561055657848901518255600182019150602085019450602081019050610531565b86831015610573578489015161056f601f891682610482565b8355505b6001600288020188555050505b505050505050565b7f4e487b71000000000000000000000000000000000000000000000000000000005f52601160045260245ffd5b5f6105bf826101f7565b91506105ca836101f7565b92508282019050808211156105e2576105e1610588565b5b92915050565b6112ee806105f55f395ff3fe6080604052600436106100c1575f3560e01c80637284e4161161007e57806391f901571161005857806391f9015714610209578063ce69cd2014610233578063d57bde791461025d578063ecde973d14610287576100c1565b80637284e4161461019f5780637edbceb1146101c95780638da5cb5b146101df576100c1565b806312fa6feb146100c55780631998aeef146100ef57806326b387bb146100f95780632a24f46c146101355780633197cbb61461014b57806340401fea14610175575b5f5ffd5b3480156100d0575f5ffd5b506100d96102c5565b6040516100e69190610b95565b60405180910390f35b6100f76102d8565b005b348015610104575f5ffd5b5061011f600480360381019061011a9190610c0c565b6105d0565b60405161012c9190610c4f565b60405180910390f35b348015610140575f5ffd5b506101496105e5565b005b348015610156575f5ffd5b5061015f61083e565b60405161016c9190610c4f565b60405180910390f35b348015610180575f5ffd5b50610189610844565b6040516101969190610cd8565b60405180910390f35b3480156101aa575f5ffd5b506101b36108cf565b6040516101c09190610cd8565b60405180910390f35b3480156101d4575f5ffd5b506101dd61095b565b005b3480156101ea575f5ffd5b506101f3610acc565b6040516102009190610d07565b60405180910390f35b348015610214575f5ffd5b5061021d610af1565b60405161022a9190610d07565b60405180910390f35b34801561023e575f5ffd5b50610247610b16565b6040516102549190610c4f565b60405180910390f35b348015610268575f5ffd5b50610271610b21565b60405161027e9190610c4f565b60405180910390f35b348015610292575f5ffd5b506102ad60048036038101906102a89190610d4a565b610b27565b6040516102bc93929190610d75565b60405180910390f35b600560149054906101000a900460ff1681565b600254421061031c576040517f08c379a000000000000000000000000000000000000000000000000000000000815260040161031390610df4565b60405180910390fd5b600560149054906101000a900460ff161561036c576040517f08c379a000000000000000000000000000000000000000000000000000000000815260040161036390610e5c565b60405180910390fd5b5f600354036103c4576611c37937e080003410156103bf576040517f08c379a00000000000000000000000000000000000000000000000000000000081526004016103b690610ec4565b60405180910390fd5b610409565b6003543411610408576040517f08c379a00000000000000000000000000000000000000000000000000000000081526004016103ff90610f2c565b60405180910390fd5b5b5f73ffffffffffffffffffffffffffffffffffffffff1660045f9054906101000a900473ffffffffffffffffffffffffffffffffffffffff1673ffffffffffffffffffffffffffffffffffffffff16146104d45760035460065f60045f9054906101000a900473ffffffffffffffffffffffffffffffffffffffff1673ffffffffffffffffffffffffffffffffffffffff1673ffffffffffffffffffffffffffffffffffffffff1681526020019081526020015f205f8282546104cc9190610f77565b925050819055505b3360045f6101000a81548173ffffffffffffffffffffffffffffffffffffffff021916908373ffffffffffffffffffffffffffffffffffffffff16021790555034600381905550600760405180606001604052803373ffffffffffffffffffffffffffffffffffffffff16815260200134815260200142815250908060018154018082558091505060019003905f5260205f2090600302015f909190919091505f820151815f015f6101000a81548173ffffffffffffffffffffffffffffffffffffffff021916908373ffffffffffffffffffffffffffffffffffffffff16021790555060208201518160010155604082015181600201555050565b6006602052805f5260405f205f915090505481565b60025442101561062a576040517f08c379a000000000000000000000000000000000000000000000000000000000815260040161062190610ff4565b60405180910390fd5b60055f9054906101000a900473ffffffffffffffffffffffffffffffffffffffff1673ffffffffffffffffffffffffffffffffffffffff163373ffffffffffffffffffffffffffffffffffffffff16146106b9576040517f08c379a00000000000000000000000000000000000000000000000000000000081526004016106b09061105c565b60405180910390fd5b600560149054906101000a900460ff1615610709576040517f08c379a000000000000000000000000000000000000000000000000000000000815260040161070090610e5c565b60405180910390fd5b6611c37937e080006003541015610755576040517f08c379a000000000000000000000000000000000000000000000000000000000815260040161074c906110c4565b60405180910390fd5b6001600560146101000a81548160ff0219169083151502179055505f60055f9054906101000a900473ffffffffffffffffffffffffffffffffffffffff1673ffffffffffffffffffffffffffffffffffffffff166003546040516107b89061110f565b5f6040518083038185875af1925050503d805f81146107f2576040519150601f19603f3d011682016040523d82523d5f602084013e6107f7565b606091505b505090508061083b576040517f08c379a00000000000000000000000000000000000000000000000000000000081526004016108329061116d565b60405180910390fd5b50565b60025481565b5f8054610850906111b8565b80601f016020809104026020016040519081016040528092919081815260200182805461087c906111b8565b80156108c75780601f1061089e576101008083540402835291602001916108c7565b820191905f5260205f20905b8154815290600101906020018083116108aa57829003601f168201915b505050505081565b600180546108dc906111b8565b80601f0160208091040260200160405190810160405280929190818152602001828054610908906111b8565b80156109535780601f1061092a57610100808354040283529160200191610953565b820191905f5260205f20905b81548152906001019060200180831161093657829003601f168201915b505050505081565b5f60065f3373ffffffffffffffffffffffffffffffffffffffff1673ffffffffffffffffffffffffffffffffffffffff1681526020019081526020015f205490505f81116109de576040517f08c379a00000000000000000000000000000000000000000000000000000000081526004016109d590611232565b60405180910390fd5b5f60065f3373ffffffffffffffffffffffffffffffffffffffff1673ffffffffffffffffffffffffffffffffffffffff1681526020019081526020015f20819055505f3373ffffffffffffffffffffffffffffffffffffffff1682604051610a459061110f565b5f6040518083038185875af1925050503d805f8114610a7f576040519150601f19603f3d011682016040523d82523d5f602084013e610a84565b606091505b5050905080610ac8576040517f08c379a0000000000000000000000000000000000000000000000000000000008152600401610abf9061129a565b60405180910390fd5b5050565b60055f9054906101000a900473ffffffffffffffffffffffffffffffffffffffff1681565b60045f9054906101000a900473ffffffffffffffffffffffffffffffffffffffff1681565b6611c37937e0800081565b60035481565b60078181548110610b36575f80fd5b905f5260205f2090600302015f91509050805f015f9054906101000a900473ffffffffffffffffffffffffffffffffffffffff16908060010154908060020154905083565b5f8115159050919050565b610b8f81610b7b565b82525050565b5f602082019050610ba85f830184610b86565b92915050565b5f5ffd5b5f73ffffffffffffffffffffffffffffffffffffffff82169050919050565b5f610bdb82610bb2565b9050919050565b610beb81610bd1565b8114610bf5575f5ffd5b50565b5f81359050610c0681610be2565b92915050565b5f60208284031215610c2157610c20610bae565b5b5f610c2e84828501610bf8565b91505092915050565b5f819050919050565b610c4981610c37565b82525050565b5f602082019050610c625f830184610c40565b92915050565b5f81519050919050565b5f82825260208201905092915050565b8281835e5f83830152505050565b5f601f19601f8301169050919050565b5f610caa82610c68565b610cb48185610c72565b9350610cc4818560208601610c82565b610ccd81610c90565b840191505092915050565b5f6020820190508181035f830152610cf08184610ca0565b905092915050565b610d0181610bd1565b82525050565b5f602082019050610d1a5f830184610cf8565b92915050565b610d2981610c37565b8114610d33575f5ffd5b50565b5f81359050610d4481610d20565b92915050565b5f60208284031215610d5f57610d5e610bae565b5b5f610d6c84828501610d36565b91505092915050565b5f606082019050610d885f830186610cf8565b610d956020830185610c40565b610da26040830184610c40565b949350505050565b7f41756374696f6e2068617320656e6465640000000000000000000000000000005f82015250565b5f610dde601183610c72565b9150610de982610daa565b602082019050919050565b5f6020820190508181035f830152610e0b81610dd2565b9050919050565b7f41756374696f6e20616c726561647920656e64656400000000000000000000005f82015250565b5f610e46601583610c72565b9150610e5182610e12565b602082019050919050565b5f6020820190508181035f830152610e7381610e3a565b9050919050565b7f4269642062656c6f77206d696e696d756d0000000000000000000000000000005f82015250565b5f610eae601183610c72565b9150610eb982610e7a565b602082019050919050565b5f6020820190508181035f830152610edb81610ea2565b9050919050565b7f42696420746f6f206c6f770000000000000000000000000000000000000000005f82015250565b5f610f16600b83610c72565b9150610f2182610ee2565b602082019050919050565b5f6020820190508181035f830152610f4381610f0a565b9050919050565b7f4e487b71000000000000000000000000000000000000000000000000000000005f52601160045260245ffd5b5f610f8182610c37565b9150610f8c83610c37565b9250828201905080821115610fa457610fa3610f4a565b5b92915050565b7f41756374696f6e206e6f7420656e6465640000000000000000000000000000005f82015250565b5f610fde601183610c72565b9150610fe982610faa565b602082019050919050565b5f6020820190508181035f83015261100b81610fd2565b9050919050565b7f4f6e6c79206f776e6572000000000000000000000000000000000000000000005f82015250565b5f611046600a83610c72565b915061105182611012565b602082019050919050565b5f6020820190508181035f8301526110738161103a565b9050919050565b7f4e6f2076616c69642062696473000000000000000000000000000000000000005f82015250565b5f6110ae600d83610c72565b91506110b98261107a565b602082019050919050565b5f6020820190508181035f8301526110db816110a2565b9050919050565b5f81905092915050565b50565b5f6110fa5f836110e2565b9150611105826110ec565b5f82019050919050565b5f611119826110ef565b9150819050919050565b7f5472616e73666572206661696c656400000000000000000000000000000000005f82015250565b5f611157600f83610c72565b915061116282611123565b602082019050919050565b5f6020820190508181035f8301526111848161114b565b9050919050565b7f4e487b71000000000000000000000000000000000000000000000000000000005f52602260045260245ffd5b5f60028204905060018216806111cf57607f821691505b6020821081036111e2576111e161118b565b5b50919050565b7f4e6f7468696e6720746f207769746864726177000000000000000000000000005f82015250565b5f61121c601383610c72565b9150611227826111e8565b602082019050919050565b5f6020820190508181035f83015261124981611210565b9050919050565b7f5769746864726177206661696c656400000000000000000000000000000000005f82015250565b5f611284600f83610c72565b915061128f82611250565b602082019050919050565b5f6020820190508181035f8301526112b181611278565b905091905056fea264697066735822122016c61d2fd9c02a476f536e8d3af872b17404413ded1711fea78d0bebc8fd5eec64736f6c634300081e0033","linkReferences":{}},"methodIdentifiers":{"MIN_BID()":"ce69cd20","auctionEnd()":"2a24f46c","bid()":"1998aeef","bidHistory(uint256)":"ecde973d","description()":"7284e416","endTime()":"3197cbb6","ended()":"12fa6feb","highestBid()":"d57bde79","highestBidder()":"91f90157","itemName()":"40401fea","owner()":"8da5cb5b","pendingReturns(address)":"26b387bb","withdrawPending()":"7edbceb1"},"id":16}